{
  "transactions": [
    {
      "hash": "0x70531a62dc7d48ce1d64658c4287e5fab418878afd90dc0fca5399f867dc032e",
      "transactionType": "CALL",
      "contractName": null,
      "contractAddress": "0x549461b7992c9a3c8caedd884cb7bbd585fb0c5f",
      "function": "mintNft(string)",
      "arguments": [
        "ipfs://bafybeig37ioir76s7mg5oobetncojcm3c3hxasyd4rvid4jqhy4gkaheg4/?filename=0-PUG.json"
      ],
      "transaction": {
        "from": "0xf73506e0233a471328455101232742983b3f7bd8",
        "to": "0x549461b7992c9a3c8caedd884cb7bbd585fb0c5f",
        "gas": "0x3b2d6",
        "value": "0x0",
        "input": "0xda86f4a900000000000000000000000000000000000000000000000000000000000000200000000000000000000000000000000000000000000000000000000000000057697066733a2f2f62616679626569673337696f6972373673376d67356f6f6265746e636f6a636d3363336878617379643472766964346a71687934676b61686567342f3f66696c656e616d653d302d5055472e6a736f6e000000000000000000",
        "nonce": "0x52",
        "chainId": "0xaa36a7"
      },
      "additionalContracts": [],
      "isFixedGasLimit": false
    }
  ],
  "receipts": [
    {
      "status": "0x1",
      "cumulativeGasUsed": "0xe22bc7",
      "logs": [
        {
          "address": "0x549461b7992c9a3c8caedd884cb7bbd585fb0c5f",
          "topics": [
            "0xddf252ad1be2c89b69c2b068fc378daa952ba7f163c4a11628f55a4df523b3ef",
            "0x0000000000000000000000000000000000000000000000000000000000000000",
            "0x000000000000000000000000f73506e0233a471328455101232742983b3f7bd8",
            "0x0000000000000000000000000000000000000000000000000000000000000001"
          ],
          "data": "0x",
          "blockHash": "0xc31b445ea5d631beac8663ed70e3632933c55137102fd3ceeb1ef90378a368ce",
          "blockNumber": "0x9c5cab",
          "blockTimestamp": "0x698e2fcc",
          "transactionHash": "0x70531a62dc7d48ce1d64658c4287e5fab418878afd90dc0fca5399f867dc032e",
          "transactionIndex": "0x49",
          "logIndex": "0x11a",
          "removed": false
        }
      ],
      "logsBloom": "0x00000000000000000000000010000000000000000000000000000000000000000000000000000000000000000000000000000000000000000000000000040000000000000000000000000008000000000000000000040000000000000000000000000000020000000000002000000800000000000000000000000010000000000000000000000000000000000800000000000000000000000000000000000000000400000000000000000000000000000000000000000000000000000000000000000002000000000000002004000000000000000000000000000000000060000000000000000000000000000000000000000000000000000000000000000000",
      "type": "0x2",
      "transactionHash": "0x70531a62dc7d48ce1d64658c4287e5fab418878afd90dc0fca5399f867dc032e",
      "transactionIndex": "0x49",
      "blockHash": "0xc31b445ea5d631beac8663ed70e3632933c55137102fd3ceeb1ef90378a368ce",
      "blockNumber": "0x9c5cab",
      "gasUsed": "0x28769",
      "effectiveGasPrice": "0xf5bff9cb",
      "from": "0xf73506e0233a471328455101232742983b3f7bd8",
      "to": "0x549461b7992c9a3c8caedd884cb7bbd585fb0c5f",
      "contractAddress": null
    }
  ],
  "libraries": [],
  "pending": [],
  "returns": {},
  "timestamp": 1770926028560,
  "chain": 11155111,
  "commit": "223f23c"
}